:020000040800F2
:1000000040080020C9180008890200088B02000877
:100010008F02000893020008970200080000000009
:100020000000000000000000000000009B0200082B
:100030009D020008000000009F020008A1020008C5
:10004000E3180008E3180008E3180008E3180008A4
:10005000E3180008E3180008E3180008E318000894
:10006000E3180008E3180008E3180008E318000884
:10007000E3180008E3180008E3180008E318000874
:10008000E3180008E3180008E3180008E318000864
:10009000E3180008E3180008E3180008E318000854
:1000A000E3180008E3180008E3180008E318000844
:1000B000E3180008E3180008E3180008E318000834
:1000C000E3180008E3180008E3180008E318000824
:1000D000E318000833180008E3180008E3180008C4
:1000E000E3180008E3180008E3180008E318000804
:1000F000E3180008E3180008E3180008E3180008F4
:10010000E3180008E3180008E3180008E3180008E3
:10011000E3180008E3180008E3180008E3180008D3
:10012000E3180008E3180008E3180008E3180008C3
:10013000E3180008E3180008E3180008E3180008B3
:10014000E3180008E3180008E3180008E3180008A3
:10015000E3180008E3180008E3180008E318000893
:10016000E3180008E3180008E3180008E318000883
:10017000E3180008E3180008E3180008E318000873
:10018000E3180008E3180008DFF80CD003F0E8FAE1
:10019000004800479D0100084008002008B500BF46
:1001A000A82001F00DFA4FF4E13001F08BFA00F0D5
:1001B00081F900F09FF901F029F900F0B7FE402025
:1001C0002F490880800008801020088057E0012116
:1001D000684601F01AFB9DF80000F52827D14FF47E
:1001E0008070274908805A2001F04CFA0221480209
:1001F00000F0E7FC4FF480702149891C08805A20E8
:1002000001F040FA40201E4908805A2001F03AFAD5
:100210000221480200F044FC40201949891C088052
:10022000642001F02FFA522001F017FB27E09DF81F
:100230000000F12802D100F03AFA20E09DF8000019
:10024000F6280DD140200E49891C088080000880C6
:10025000642001F017FA10200949891C08800EE07B
:100260009DF8000001F087F80648008838B953204F
:1002700001F0F3FA40200249088080000880A6E7D8
:10028000181402402A000020704700BFFEE700BF9C
:10029000FEE700BFFEE700BFFEE77047704770470C
:1002A000704700000CB5002001900090764800686F
:1002B00040F480307449086000BF7348006800F45F
:1002C000003000900198401C0190009818B90198E6
:1002D000B0F5A04FF1D16C48006800F4003010B1C7
:1002E0000120009001E0002000900098012846D1F4
:1002F00065484030006840F08050634940310860F4
:100300006248006840F44040604908605E48083038
:1003100000685D49083108600846006840F4004004
:1003200008600846006840F4A05008605848091F5B
:100330000860081F006840F08070091F086000BF57
:100340005148006800F000700028F9D040F20570B4
:10035000504908604C480830006820F003004A49C2
:10036000083108600846006840F00200086000BFDD
:1003700045480830006800F00C000828F8D10CBD92
:1003800010B54548006840F47000434908603E4895
:10039000006840F001003C49086000203A490831FB
:1003A0000860394800683D490840374908603C48C2
:1003B000091D0860081F006820F48020091F0860DC
:1003C000002031490C310860FFF76CFF4FF00060EE
:1003D00031498039086010BD70B500200022022329
:1003E00000240221284D08352D6805F00C0020B1AD
:1003F000042806D0082834D107E02A4D2A4E35605B
:1004000033E02A4D284E35602FE01F4D2D1D2D68FD
:10041000C5F380541C4D2D1D2D6805F03F0154B1CE
:10042000224DB5FBF1F5184E361D3668C6F3881619
:1004300005FB06F209E01B4DB5FBF1F5124E361D2A
:100440003668C6F3881605FB06F20F4D2D1D2D6884
:10045000C5F301456D1C6B00B2FBF3F5124E356020
:1004600003E0104D104E356000BF00BF064D08354B
:100470002D68C5F303150E4E705D0B4D2D68C540FC
:10048000094E356070BD0000003802400070004029
:1004900008544007003C024088ED00E0FFFFF6FEF4
:1004A000103000240024F4000000002000127A0024
:1004B000040000201CB50121202001F0ABFD4FF409
:1004C000C060009001208DF8040000208DF8060027
:1004D00003208DF8050001208DF8070069460448C7
:1004E00001F0FAFA4FF4C061014801F073FB1CBD42
:1004F000001402401CB50121102001F08BFD0121E8
:10050000102001F087FD0C20009001208DF80400E0
:1005100000208DF8060003208DF8050001208DF8DD
:1005200007006946FE4801F0D7FA03200090012039
:100530008DF8040000208DF8060003208DF80500DA
:1005400001208DF807006946F54801F0C5FA00F072
:10055000A1FF00214FF0804002F0D0F90021F148C6
:1005600002F0CCF91CBD70B505460C460020EE49E2
:10057000088047E0EC48B0F90000EC49B1F9001000
:10058000884200DB3FE04FF08040406A00B2002824
:1005900006DA0820E24908830020E34908801EE0CB
:1005A0004FF08040406A00B2002806DD0820DC4998
:1005B00048830020DC49088011E04FF08041496AFF
:1005C00009B24842002801DB014600E04142A14255
:1005D00005DAD5480088401C00B2D3490880D248CB
:1005E000008860B90420CE490883052001F002F894
:1005F0000420CB494883284600F0FCFF02E00A2093
:1006000000F0F8FFB6E700BF70BD70B505460C46B8
:100610000020C549088047E0C348B0F90000C3493D
:10062000B1F90010884200DB3FE0BE48243000688A
:1006300000B2002806DD0220B94948830020BA49EB
:1006400008801EE0B7482430006800B2002806DAAF
:100650000220B34908830020B349088011E0B14962
:100660002431096809B24842002801DB014600E054
:100670004142A14205DAAC480088401C00B2AA49B8
:100680000880A948008860B90120A5490883052091
:1006900000F0B0FF0120A2494883284600F0AAFFDD
:1006A00002E00A2000F0A6FFB6E700BF70BD70B5FB
:1006B00000F057FC10B900F058FCF8B100F051FC04
:1006C000054600EBD5704010A5EB4000B8B100F036
:1006D0004CFC044600EBD4704010A4EB400070B911
:1006E000C8216420FFF73FFF002000F032FCC82142
:1006F0006420FFF78AFF002000F02FFC0DE0C821E6
:100700006420FFF782FF002000F027FCC82164204E
:10071000FFF729FF002000F01CFC02214FF461705C
:10072000FFF721FF002000F014FC02214FF461705C
:10073000FFF76BFF002000F010FC70BD2DE9F047C3
:100740002DED048B07460E469046A6EB080002F0FE
:1007500049FF41EC190BB0EE490AF0EE690A03F0CB
:100760002DF8B0EE408AF0EE608A51EC180B02F0E2
:100770004AFF05B2F01B02F035FF41EC190BB0EE59
:10078000490AF0EE690A03F019F8B0EE408AF0EE7B
:10079000608A51EC180B02F036FF0FFA80F9A5EBD6
:1007A000090004B2C82C06DA614830F91400BDEC27
:1007B000048BBDE8F087C82C07DBA5F1C800A04278
:1007C00003DB5B48B0F98E01F1E7A5F1C800A04258
:1007D0000ADAAC4203DB5648B0F90000E7E7281B11
:1007E000534931F91000E2E700BFE0E72DE9F04797
:1007F0002DED048B07460E469046A6EB080002F04E
:10080000F1FE41EC190BB0EE490AF0EE690A02F074
:10081000D5FFB0EE408AF0EE608A51EC180B02F082
:10082000F2FE05B2F01B02F0DDFE41EC190BB0EE5A
:10083000490AF0EE690A02F0C1FFB0EE408AF0EE1C
:10084000608A51EC180B02F0DEFE0FFA80F9A5EB7E
:10085000090004B2C82C06DA364830F91400BDECA1
:10086000048BBDE8F087C82C07DBA5F1C800A042C7
:1008700003DB3048B0F98E01F1E7A5F1C800A042D2
:100880000ADAAC4203DB2B48B0F90000E7E7281B8B
:10089000284931F91000E2E700BFE0E72DE9F04711
:1008A0002DED068B04460D4616464FF00008002736
:1008B000A81B02F097FE41EC1A0BB0EE4A0AF0EECC
:1008C0006A0A02F07BFFB0EE409AF0EE609A9FED6C
:1008D0001A0B53EC102B51EC190B02F00BFE41ECF0
:1008E000180B02F090FE0FFA80F9281B02F07AFE36
:1008F00041EC190BB0EE490AF0EE690A02F05EFF16
:10090000B0EE408AF0EE608A51EC180B02F07BFEEC
:1009100007B24F4523DD384602F064FE10E00000C8
:1009200000100240000400401400002016000020C7
:10093000F637000886390008000000000000694012
:1009400041EC190B9FEDF70B53EC102B02F0D8FD87
:1009500041EC180B02F057FE0FFA80F81EE0C82F8A
:100960001CDAA01B02F03EFE41EC1A0BB0EE4A0A64
:10097000F0EE6A0A02F022FFB0EE409AF0EE609AC2
:100980009FEDEA0B53EC102B51EC190B02F0B8FD64
:1009900041EC180B02F037FE0FFA80F8B8F1160F91
:1009A00001DA4FF016084046BDEC068BBDE8F08733
:1009B0002DE9F0472DED068B04460D4616464FF007
:1009C00000080027A81B02F00DFE41EC1A0BB0EE48
:1009D0004A0AF0EE6A0A02F0F1FEB0EE409AF0EE3A
:1009E000609A1FED2B0B53EC102B51EC190B02F0FE
:1009F00081FD41EC180B02F006FE0FFA80F9281B6E
:100A000002F0F0FD41EC190BB0EE490AF0EE690A74
:100A100002F0D4FEB0EE408AF0EE608A51EC180B82
:100A200002F0F1FD07B24F4511DD384602F0DAFD64
:100A300041EC190B9FEDBB0B53EC102B02F060FD4A
:100A400041EC180B02F0DFFD0FFA80F81EE0C82F12
:100A50001CDAA01B02F0C6FD41EC1A0BB0EE4A0AEC
:100A6000F0EE6A0A02F0AAFEB0EE409AF0EE609A4A
:100A70009FEDAE0B53EC102B51EC190B02F040FD27
:100A800041EC180B02F0BFFD0FFA80F8B8F1160F19
:100A900001DA4FF016084046BDEC068BBDE8F08742
:100AA0002DE9F04705460E4600274FF08040406A8A
:100AB0000FFA80F80024A146B5F5806F07D1601EBB
:100AC00000F039FA00F04DFA800204B216E0B5F5F4
:100AD000006F08D16FF0010000F02DFA00F041FA2C
:100AE000800204B20AE0B5F5406F07D16FF0020052
:100AF00000F021FA00F035FA800204B208208D4996
:100B000048835AE04FF08040406A00B2A04203DAC6
:100B100008208849088327E04FF08040406A00B2EF
:100B2000A04203DD0820834948831DE04FF0804147
:100B3000496A09B2601A002801DB014600E041421F
:100B4000142911DA4FF00109012000F053FD4FF094
:100B50008041496A09B2601A002801DB014600E0C1
:100B60004142142900DA29E0012E0AD1B107496A6D
:100B700008B242462146FFF7E1FD0746B81E07B21C
:100B800009E0022E07D17107496A08B242462146A0
:100B9000FFF72CFE0746B9F1000F02D0012000F04C
:100BA00029FD042063490883052000F023FD04206B
:100BB00060494883384600F01DFDA3E700BFBDE84B
:100BC000F0872DE9F04705460E4600274FF080409C
:100BD000406A0FFA80F80024A146B5F5806F07D16E
:100BE000012000F0A8F900F0BCF9800204B214E082
:100BF000B5F5006F07D1022000F09DF900F0B1F9C2
:100C0000800204B209E0B5F5406F06D1032000F080
:100C100092F900F0A6F9800204B208204549088341
:100C20005AE04FF08040406A00B2A04203DD082045
:100C30004049488327E04FF08040406A00B2A0421C
:100C400003DA08203B4908831DE04FF08041496AE0
:100C500009B2601A002801DB014600E04142142974
:100C600011DA4FF00109012000F0C4FC4FF080417F
:100C7000496A09B2601A002801DB014600E04142DE
:100C8000142900DA29E0012E0AD1B107496A08B215
:100C900042462146FFF752FD0746B81E07B209E05B
:100CA000022E07D17107496A08B242462146FFF772
:100CB0009DFD0746B9F1000F02D0012000F09AFC1B
:100CC00004201C490883052000F094FC04201949E5
:100CD0004883384600F08EFCA3E700BFBDE8F087EC
:100CE0002DE9F04705460E460027134800680FFA25
:100CF00080F80024A146B5F5806F07D1601E00F092
:100D000021F900F032F9800204B222E0B5F5006F5B
:100D100014D16FF0010000F015F900F026F98002FF
:100D200004B216E07B14AE47E17AA43F9A999999F0
:100D30009999E93F0010024024040040B5F5406F46
:100D400007D16FF0020000F0FDF800F00EF980020C
:100D500004B202207349488356E07348006800B229
:100D6000A04203DD02206F49488324E06E480068FA
:100D700000B2A04203DA02206A4908831BE06A49F4
:100D8000096809B2601A002801DB014600E041420F
:100D9000142910DA4FF00109012000F02BFC624900
:100DA000096809B2601A002801DB014600E04142EF
:100DB000142900DA29E0012E0AD15B49096808B23A
:100DC00042462146FFF7BAFC0746B81E07B209E0C3
:100DD000022E07D15449096808B242462146FFF75E
:100DE00005FD0746B9F1000F02D0012000F002FC1A
:100DF00001204C490883052000F0FCFB01204949F3
:100E00004883384600F0F6FBA7E700BFBDE8F0874F
:100E10002DE9F04705460E460027434800680FFAC3
:100E200080F80024A146B5F5806F07D1012000F0BD
:100E300089F800F09AF8800204B214E0B5F5006F6A
:100E400007D1022000F07EF800F08FF8800204B293
:100E500009E0B5F5406F06D1032000F073F800F00B
:100E600084F8800204B202202E49088356E02E48FE
:100E7000006800B2A04203DA02202A49088324E075
:100E80002948006800B2A04203DD022025494883BA
:100E90001BE02549096809B2601A002801DB0146F8
:100EA00000E04142142910DA4FF00109012000F05E
:100EB000A1FB1D49096809B2601A002801DB01463F
:100EC00000E04142142900DA29E0012E0AD1164936
:100ED000096808B242462146FFF730FC0746B81EB3
:100EE00007B209E0022E07D10F49096808B242464D
:100EF0002146FFF77BFC0746B9F1000F02D0012025
:100F000000F078FB012007490883052000F072FB00
:100F1000012004494883384600F06CFBA7E700BF76
:100F2000BDE8F08700100240240400400020F7498B
:100F3000488088807047F5494988014409B2F34ADE
:100F400051807047F1498988014409B2EF4A918084
:100F500070470021ED4A518070470021EB4A918093
:100F60007047EA48B0F902007047E848B0F9040059
:100F7000704710B50446E549B1F9040000EBD071A3
:100F80004910A0EB410119B3012C05D12002E04921
:100F900008805A2000F076FBDC48B0F904000028F5
:100FA00004DD4FF4806002F002FC08E0D748B0F99D
:100FB0000400002803DA4FF4806002F0F1FB012CFA
:100FC00006D12002D249891C08805A2000F05AFB21
:100FD00010BD10B50120FFF7CCFFCC4800783128B8
:100FE00004D0322821D0332833D10FE0C748B0F9DC
:100FF000020010F1040F04DC4FF4406002F0C2FB69
:1010000003E04FF4806002F0C4FB23E0BF48B0F976
:101010000200042804DB4FF4406002F0BAFB03E056
:101020004FF4806002F0AEFB14E0B848B0F9020063
:10103000002804DD4FF4006002F0ABFB08E0B34889
:10104000B0F90200002803DC4FF4006002F09AFBC4
:1010500000E000BF00BF10BD10B50446AB49B1F9B8
:10106000020000EBD0714910A0EB410119B3012C33
:1010700005D14020A64908805A2000F003FBA34870
:10108000B0F90200002804DD4FF4806002F081FB1B
:1010900008E09E48B0F90200002803DA4FF48060AF
:1010A00002F070FB012C06D140209949891C088070
:1010B0005A2000F0E7FA10BD10B50120FFF7CCFF71
:1010C00092480078312804D0322821D0332833D1F7
:1010D0000FE08E48B0F9040010F1040F04DC4FF467
:1010E000406002F05DFB03E04FF4806002F05FFBC4
:1010F00023E08648B0F90400042804DB4FF4406084
:1011000002F055FB03E04FF4806002F049FB14E06D
:101110007E48B0F90400002804DD4FF4006002F0BE
:1011200046FB08E07948B0F90400002803DC4FF4DE
:10113000006002F035FB00E000BF00BF10BD10B53D
:101140000446012C0FD17148B0F9020010F1040FD0
:1011500004DC4FF4406002F015FB7BE04FF480604C
:1011600002F017FB76E0022C0ED16848B0F90200BD
:10117000042804DB4FF4406002F00BFB6AE04FF4FC
:10118000806002F0FFFA65E0032C13D15F48B0F9EC
:101190000200002804DD4FF4006002F0FAFA59E082
:1011A0005A48B0F90200002854DC4FF4006002F005
:1011B000E9FA4FE0152C10D15448B0F9020010F1B3
:1011C000040F05DC02214FF44060FFF7FAFC41E018
:1011D00002214802FFF764FC3CE0162C0FD14B487B
:1011E000B0F90200042805DB02214FF44060FFF74C
:1011F00057FC2FE002214802FFF7E3FC2AE0172CFE
:1012000013D14248B0F90200002804DD022188020F
:10121000FFF746FC1EE03D48B0F90200002819DC4B
:1012200002218802FFF7CDFC14E00B2C12D13748C5
:10123000B0F90200002804DD4FF4806002F0A9FA42
:1012400008E03248B0F90200002803DA4FF4806069
:1012500002F098FA10BD10B50446042C0FD12B48AB
:10126000B0F9040010F1040F04DC4FF4406002F008
:1012700097FA7FE04FF4806002F099FA7AE0052C4B
:101280000ED12248B0F90400042804DB4FF440607A
:1012900002F08DFA6EE04FF4806002F081FA69E0AE
:1012A000062C13D11948B0F90400002804DD4FF4CE
:1012B000006002F07CFA5DE01448B0F904000028F8
:1012C00058DC4FF4006002F06BFA53E0182C0FD199
:1012D0000E48B0F9040010F1040F04DC0221E00113
:1012E000FFF796FD46E002214802FFF7F9FC41E0D6
:1012F000192C14D10548B0F9040004280ADB022196
:101300004FF44060FFF7ECFC34E000001A000020CE
:101310001814024002214802FFF77AFD2AE01A2C35
:1013200013D13848B0F90400002804DD02218802F6
:10133000FFF7D6FC1EE03348B0F90400002819DCA2
:1013400002218802FFF764FD14E00C2C12D12D4815
:10135000B0F90400002804DD4FF4806002F027FAA1
:1013600008E02848B0F90400002803DA4FF4806050
:1013700002F016FA10BD10B50446012C01DB032C57
:1013800005DD152C01DB172C01DD0B2C03D12046CC
:10139000FFF7D5FE34E0042C01DB062C05DD182C0C
:1013A00001DB1A2C01DD0C2C03D12046FFF753FF83
:1013B00026E0072C06D14020134908805A2000F06F
:1013C00061F91DE0082C07D140200F49891C0880D5
:1013D0005A2000F057F913E0092C07D14FF4807020
:1013E000094908805A2000F04DF909E00A2C07D17C
:1013F0004FF480700449891C08805A2000F042F99B
:1014000010BD00001A000020181402401CB5012174
:10141000202000F0FFFD0121202000F0FBFD4020F6
:10142000009001208DF8040000208DF806000320B4
:101430008DF8050001208DF807006946144800F07A
:101440004BFB4FF48070009001208DF804000020C9
:101450008DF8060003208DF8050001208DF80700A7
:1014600069460B4800F038FB1020009001208DF8F1
:10147000040000208DF8060003208DF805000120EF
:101480008DF807006946024800F026FB1CBD0000ED
:101490000014024000B589B00121084600F003FEA7
:1014A0000121022000F0FFFD0121084600F0B2FDFD
:1014B0000121022000F0AEFD48F2C000079002209A
:1014C0008DF8200003208DF8210001208DF82300E5
:1014D00007A9384800F000FB02220621354800F039
:1014E00086FB02220721334800F081FB01220F21F5
:1014F000304800F07CFB0820079002208DF8200087
:1015000003208DF8210001208DF8230007A92A4827
:1015100000F0E2FA01220321274800F068FB4FF0B7
:10152000804001F0F5F8254801F0F2F80020ADF810
:1015300004004FF6FF7002900020ADF80C00ADF8EB
:10154000060001A94FF0804001F08FF901A91B4866
:1015500001F08BF900231A4603214FF0804001F07F
:10156000F8FE00231A460321144801F0F2FE04A8F5
:1015700001F089FD0620ADF8180004A94FF0804065
:1015800001F04AFD04A90D4801F046FD00214FF08D
:10159000804001F0B3F90021084801F0AFF90121C2
:1015A000880701F0EBF90121044801F0E7F909B0DF
:1015B00000BD0000000002400004024000040040A2
:1015C00010B504466FF0040000F0E2F9E11704EBF7
:1015D0005171C1F3C701394A11701046007800EB10
:1015E0004001C1EBC0104FF6FF7101EAC000344961
:1015F000088010BD0146314A12784A434FF0E0237B
:101600005A6100229A611A46126942F001021A6177
:1016100000BF4FF0E022106900F001021AB100F49F
:101620008032002AF5D04FF0E022126922F0010248
:101630004FF0E0231A6100229A6170470146204A68
:1016400012884A434FF0E0235A6100229A611A46F9
:10165000126942F001021A6100BF4FF0E0221069E6
:1016600000F001021AB100F48032002AF5D04FF0E8
:10167000E022126922F001024FF0E0231A610022F9
:101680009A61704770B504464FF4077094FBF0F010
:10169000C6B24FF4077094FBF0F100FB114085B225
:1016A00005E04FF40770FFF7C9FF701EC6B2002EA9
:1016B000F7D115B12846FFF7C1FF70BD2200002009
:1016C0002400002010B588B004460121084600F02F
:1016D000A1FC0121102000F0F7FC07220921744829
:1016E00000F085FA07220A21714800F080FA4FF4D1
:1016F000C060069002208DF81C008DF81D000020AF
:101700008DF81E0001208DF81F0006A9684800F022
:10171000E3F902940020ADF80C00ADF80E00ADF82E
:101720001000ADF814000C20ADF8120002A96148B9
:1017300000F02BFE01215F4800F0AFFE40215D4824
:1017400000F093FF012240F225515A4800F05BFF60
:1017500025208DF8040000208DF8050001208DF86B
:1017600006008DF8070001A800F0C5F808B010BD0C
:101770005149B1F90010B1F5806F05DA4F494E4A71
:10178000B2F90020885406E000214B4A11804B49F1
:10179000B2F90020885448490988491C09B2464AD0
:1017A000118047490988491C09B2454A1180704790
:1017B00000BF434800880028FBD04248B0F9000031
:1017C000B0F5806F12DA3D483E4AB2F90020815CE4
:1017D0003C480088401C00B23A4A108038480088D3
:1017E000401E00B2364A1080084670470020354A35
:1017F000108033480088401E00B2314A10802F48C4
:10180000304AB2F90020805CEFE730B505460B4660
:1018100000BF2B48B0F900008342FADC002405E049
:10182000FFF7C6FF28706D1C601CC4B29C42F7DB3A
:1018300030BD10B540F225511E4800F01FFF58B1D1
:101840001C4800F059FEC4B22046FFF791FF40F259
:101850002551184800F04DFF10BD10B50446214633
:10186000144800F045FE00BF8021124800F0F0FE51
:101870000028F9D010BD70B504460D46E1B20D4800
:1018800000F036FE00BF80210A4800F0E1FE00288B
:10189000F9D0204670BD10B5044600BF2021054890
:1018A00000F0D6FE0028F9D0024800F025FE10BD59
:1018B0000000024000100140280000203C000020F1
:1018C0002A000020260000200648804706480047DE
:1018D000FEE7FEE7FEE7FEE7FEE7FEE7FEE7FEE7E0
:1018E000FEE7FEE781030008890100083249014351
:1018F000324A1160704770B5002100230F22C4786E
:101900001CB32E4C246804F4E064C4F5E064C4F312
:101910000721C1F10404E3B20A4144789C40E1B2DA
:101920008478144021430C07210E254C057861551D
:10193000047804F01F050124AC4005786D11AD005A
:1019400005F1E025C5F8004109E0047804F01F0521
:101950000124AC401B4D0678761145F8264070BD39
:10196000194A0A400243154B1B1F1A60704739B1D0
:10197000124A121D12680243104B1B1D1A6006E02A
:101980000E4A121D126882430C4B1B1D1A607047D1
:10199000042808D14FF0E021096941F004014FF01B
:1019A000E022116107E04FF0E021096921F0040114
:1019B0004FF0E022116170470000FA050CED00E0E5
:1019C00000E400E080E100E080FFFF1F10B5044666
:1019D0009848844208D10121084600F086FB002186
:1019E000012000F082FB76E09348844208D1012177
:1019F000022000F07AFB0021022000F076FB6AE072
:101A00008E48844208D10121042000F06EFB0021A1
:101A1000042000F06AFB5EE08948844208D101217D
:101A2000082000F062FB0021082000F05EFB52E07D
:101A30008448844208D10121102000F056FB002187
:101A4000102000F052FB46E07F48844208D101217B
:101A5000202000F04AFB0021202000F046FB3AE065
:101A60007A48844208D10121402000F03EFB002149
:101A7000402000F03AFB2EE07548844208D1012155
:101A8000802000F032FB0021802000F02EFB22E0BD
:101A90007048844208D10121801500F026FB002106
:101AA000A01500F022FB16E06B48844208D101210A
:101AB000401500F01AFB0021601500F016FB0AE04B
:101AC0006648844207D10121001500F00EFB002179
:101AD000201500F00AFB10BDF0B50A4600210023D6
:101AE000002400BF3DE0012505FA01F3156805EA71
:101AF00003049C4234D105684F000326BE40B54321
:101B0000056015794E00B5400668354305601579C6
:101B1000012D02D01579022D16D185684F000326BC
:101B2000BE40B543856055794E00B5408668354363
:101B30008560456801268E40B543456045689679C5
:101B40008E40B6B235434560C5684F000326BE409F
:101B5000B543C560D5794E00B540C6683543C5600C
:101B6000491C1029BFD3F0BD4FF6FF710160002161
:101B7000017141718171C171704708B54FF48032B4
:101B80000092009A0A430092009AC261C161009AD1
:101B9000C261C2690092C269009208BD024600207B
:101BA00013690B400BB1012000E000207047014693
:101BB000086980B270470246002053690B400BB1A0
:101BC000012000E0002070470146486980B270475C
:101BD00001837047418370470AB1018300E041836C
:101BE00070474161704742694A4042617047F0B5B1
:101BF000002300244D07ED0E02FA05F3CE1000F18C
:101C0000200555F826504E07F70E0F26BE40B54367
:101C1000CF1000F1200646F82750CE1000F1200525
:101C200055F8265045EA0304CE1000F1200545F88A
:101C30002640F0BD000002400004024000080240BF
:101C4000000C024000100240001402400018024044
:101C5000001C0240002002400024024000280240F4
:101C6000F948006840F00100F74908600020F64993
:101C700008310860F4480068F4490840F2490860F7
:101C8000F348091D0860F348EF4984310860F048C3
:101C90001038091D0860EC48006820F48020EA49EB
:101CA00008600020E8490C310860E7498C31086081
:101CB00070470021E44A921C117011460870704769
:101CC00010B501460022002300204A11012A02D14A
:101CD000DD4C236808E0022A03D1DB4C7034236812
:101CE00002E0D94C7434236801F01F0201249440AF
:101CF0001C400CB1012000E0002010BD38B50020D0
:101D000000900024002500BF3120FFF7D9FF0546D1
:101D10000098401C00900098B0F5A04F01D0002D15
:101D2000F2D03120FFF7CCFF08B1012400E00024FD
:101D3000204638BD01460020C34A106820F0F80054
:101D400040EAC10010607047C34908607047002135
:101D5000BD4A703211701170012802D004280AD1D6
:101D600004E00121B84A7032117005E00521B64A3D
:101D70007032117000E000BF00BF7047B7490860C3
:101D8000704770B5049C41EA82150126C6EB5306E4
:101D900045EA0645054345EA0465AB4E361D356008
:101DA00070BDAD4908667047820142EA0172A64BD8
:101DB00084331A607047A8498866704710B583015C
:101DC00043EA016343EA02739F4C8834236010BDE9
:101DD000A14908677047A049C864704702460020BF
:101DE000994B0833186820F0EC6042EA010318436D
:101DF000954B08331860704702460020924B083319
:101E0000186820F0784042EA010318438E4B0833EB
:101E100018607047014600208B4A0832106820F095
:101E2000030008431060704787480830006800F0DE
:101E30000C00704701460020834A0832106820F0E9
:101E4000F000084310607047014600207E4A0832C7
:101E5000106820F4E05008431060704701460020ED
:101E6000794A0832106820F4604040EAC1001060EE
:101E70007047F0B50021002200240225002602232D
:101E8000714F08373F6807F00C0121B1042905D0D4
:101E9000082937D105E0724F076036E0714F0760BF
:101EA00033E0694F3F1D3F68C7F38056664F3F1DC3
:101EB0003F6807F03F036EB16A4FB7FBF3F7DFF8F7
:101EC00088C10CF1040CDCF800C0CCF3881C07FBC3
:101ED0000CF40CE0624FB7FBF3F7DFF86CC10CF1C8
:101EE000040CDCF800C0CCF3881C07FB0CF4564F44
:101EF0003F1D3F68C7F301477F1C7D00B4FBF5F72A
:101F0000076002E0564F076000BF00BF4E4F083722
:101F10003F6807F0F0010909534F7A5C0768D74022
:101F20004760494F08373F6807F4E051890A4E4F30
:101F30007A5C4768D7408760434F08373F6807F4AB
:101F40006041490B484F7A5C4768D740C760F0BD95
:101F5000002100F44072B2F5407F0AD13A4A0832BB
:101F6000116821F4F811414A02401143364A0832FF
:101F70001160354A70321268C0F30B031A43324BBA
:101F800070331A60704735494439086070473349E7
:101F900040390860704736490860704701460020A4
:101FA000294A8C32106820F01F004A1E1043264A2E
:101FB0008C321060704701460020234A8C32106832
:101FC00020F4F8504A1E40EA02201F4A8C3210606A
:101FD0007047014600201C4A8C32106820F44010E3
:101FE00008431060704701460020174A8C32106881
:101FF00020F4400008431060704701460020124A58
:102000008C32106820F44030084310607047194942
:102010000860704739B10C4A3032126802430A4BEB
:1020200030331A6006E0084A303212688243064BA9
:1020300030331A607047F9B1034A343212680243F0
:10204000014B34331A601CE000380240FFFFF6EA0F
:10205000103000240030002000004742800E47422C
:102060000024F40000127A002C000020FFFCFF0F77
:102070005C014742E01147428F4A126882438E4B0F
:102080001A60704739B18C4A121D126802438A4B9C
:102090001B1D1A6006E0884A121D12688243864B97
:1020A0001B1D1A60704739B1834A0C321268024313
:1020B000814B0C331A6006E07F4A0C32126882436F
:1020C0007D4B0C331A60704739B17B4A103212686D
:1020D0000243794B10331A6006E0774A10321268D7
:1020E0008243754B10331A60704739B1724A243AF3
:1020F00012680243704B243B1A6006E06E4A243A91
:10210000126882436C4B243B1A60704739B16A4AAB
:10211000203A12680243684B203B1A6006E0664A88
:10212000203A12688243644B203B1A60704739B1F1
:10213000614A1C3A126802435F4B1C3B1A6006E07E
:102140005D4A1C3A126882435B4B1C3B1A60704725
:1021500039B1594A143A12680243574B143B1A607A
:1021600006E0554A143A12688243534B143B1A60F6
:10217000704739B1504A103A126802434E4B103B37
:102180001A6006E04C4A103A126882434A4B103BF0
:102190001A60704739B1484A1C3212680243464BF4
:1021A0001C331A6006E0444A1C3212688243424BD8
:1021B0001C331A60704739B13F4A2032126802431B
:1021C0003D4B20331A6006E03B4A203212688243BE
:1021D000394B20331A60704739B1374A24321268BC
:1021E0000243354B24331A6006E0334A2432126826
:1021F0008243314B24331A60704739B12E4A2C3256
:10220000126802432C4B2C331A6006E02A4A2C3207
:1022100012688243284B2C331A60704739B1264A22
:10222000303212680243244B30331A6006E0224AEF
:10223000303212688243204B30331A6070470128D5
:1022400008D11D493C31096841F008011A4A3C3265
:10225000116007E018493C31096821F00801164A6D
:102260003C321160704739B1134A273A1278024361
:10227000114B273B1A7006E00F4A273A1278824327
:102280000D4B273B1A7070470B484030006840F0F8
:102290008070094940310860704701460020064AB5
:1022A000283A12680A400AB1012000E00020704775
:1022B00001492639087070473438024010B5044689
:1022C000FA48844208D101211020FFF752FF002173
:1022D0001020FFF74EFF57E0F548844209D1012155
:1022E0004804FFF735FF00214FF40030FFF730FFBF
:1022F0004AE0F048844209D101218804FFF728FF11
:1023000000214FF48020FFF723FF3DE0EA4884429C
:1023100009D10121C804FFF71BFF00214FF4002061
:10232000FFF716FF30E0E548844209D10121080596
:10233000FFF70EFF00214FF48010FFF709FF23E0A5
:10234000DF48844208D101212020FFF712FF00213D
:102350002020FFF70EFF17E0DA48844209D101215F
:102360008807FFF7F5FE00214FF08040FFF7F0FEF1
:102370000AE0D548844207D101214005FFF7E8FE75
:1023800000216005FFF7E4FE10BD2DE9FF4705467B
:102390000E460024A14600BFA046B08900B100BF90
:1023A0002C8A24F44054F08804432C82AC8941F2F6
:1023B0000C608443B0883189084371890843044321
:1023C000AC81AC8A24F44074B0890443AC82684682
:1023D000FFF74FFDB548854202D0B948854202D18A
:1023E000DDF80C9001E0DDF80890A88900F40040C9
:1023F00040B109EBC90000EB091031684900B0FB9E
:10240000F1F707E009EBC90000EB0910316889001A
:10241000B0FBF1F76420B7FBF0F004012009642160
:1024200001FB1078A88900F4004040B1322000EB95
:10243000C800B0FBF1F000F00700044308E03220D0
:1024400000EB08106421B0FBF1F000F00F00044332
:102450002C81BDE8FF874FF4165101600021818077
:10246000C18001810C21418100218181704710B51B
:1024700002460020108A20F470600B884C882343A9
:102480008C882343CC8823431843108210BD00213D
:10249000018041808180C180704721B1828942F4EE
:1024A0000052828104E082894DF6FF731A408281D6
:1024B0007047028B02F47F420283028B0A4302833D
:1024C000704721B1828942F40042828103E082890F
:1024D000C2F30E028281704721B1828A42F4006207
:1024E000828204E0828A4FF2FF731A408282704730
:1024F000C1F308028280704701468888C0F3080053
:102500007047028A4FF6F0731A400282028A0A4329
:102510000282704721B1828942F00202828104E086
:1025200082894FF6FD731A408281704782894FF28B
:10253000FF731A40828182890A4382817047028A2E
:102540004FF6DF731A400282028A0A430282704702
:1025500021B1028A42F48042028204E0028A4BF6F0
:10256000FF731A4002827047818941F00101818125
:10257000704721B1828A42F00802828204E0828A96
:102580004FF6F7731A4082827047028BD2B20283F1
:10259000028B42EA01220283704721B1828A42F013
:1025A0002002828204E0828A4FF6DF731A40828220
:1025B000704721B1828A42F01002828204E0828A4E
:1025C0004FF6EF731A4082827047828A4FF6FB7390
:1025D0001A408282828A0A438282704721B1828AAB
:1025E00042F00202828204E0828A4FF6FD731A40B2
:1025F000828270471AB1838A0B43838202E0838A06
:102600008B4383827047F0B50346002400260025E3
:10261000002040F66A17B94200D100BF1846C1F346
:10262000421401F01F06012707FA06F5012C01D11B
:102630000C3004E0022C01D1103000E014301AB14B
:1026400007682F43076002E00768AF430760F0BDEB
:1026500002460020B1F5007F00D100BF13880B4077
:102660000BB1012000E00020704701F40072B2F5C8
:10267000007F00D100BFCA430280704770B5024698
:10268000002400230025002040F66A16B14200D144
:1026900000BFC1F3421501F01F03012606FA03F340
:1026A000012D13D19689334017E00000001001403E
:1026B0000044004000480040004C004000500040F2
:1026C0000014014000780040007C0040022D02D13F
:1026D000168A334001E0968A33400C12012606FA2E
:1026E00004F41688344013B10CB1012000E000203E
:1026F00070BD10B50022002340F66A14A14200D13B
:1027000000BF0A1201249440A3B2DC43048010BD30
:1027100010B50446FE48844208D101210846FFF75F
:1027200028FD00210120FFF724FD9DE0B4F1804F3A
:1027300008D101210846FFF70BFD00210120FFF71A
:1027400007FD91E0F348844208D101210220FFF700
:10275000FFFC00210220FFF7FBFC85E0EE488442ED
:1027600008D101210420FFF7F3FC00210420FFF72A
:10277000EFFC79E0E948844208D101210820FFF705
:10278000E7FC00210820FFF7E3FC6DE0E448844209
:1027900008D101211020FFF7DBFC00211020FFF7FA
:1027A000D7FC61E0DF48844208D101212020FFF7F7
:1027B000CFFC00212020FFF7CBFC55E0DA48844213
:1027C00008D101210220FFF7D4FC00210220FFF7ED
:1027D000D0FC49E0D548844209D101210804FFF723
:1027E000C8FC00214FF48030FFF7C3FC3CE0D04828
:1027F000844209D101214804FFF7BBFC00214FF4BA
:102800000030FFF7B6FC2FE0CA48844209D101210D
:102810008804FFF7AEFC00214FF48020FFF7A9FCED
:1028200022E0C548844208D101214020FFF790FCF6
:1028300000214020FFF78CFC16E0C048844208D1FC
:1028400001218020FFF784FC00218020FFF780FC1D
:102850000AE0BB48844207D101218015FFF778FCCC
:102860000021A015FFF774FC10BD00220288A84BC0
:1028700098420ED0AC4B98420BD0B0F1804F08D0AC
:10288000A44B984205D0A44B984202D0A34B984247
:1028900004D14FF68F731A404B881A43A04B9842CD
:1028A00007D0A04B984204D04FF6FF431A400B8943
:1028B0001A4302804B68C3620B880385944B98428D
:1028C00002D0994B984201D18B7A038601238382EF
:1028D00070474FF0FF31416000210180018141804C
:1028E000817270470185828270470A460021018803
:1028F0004FF68F7319401143018070474162704752
:10290000C16270470146486A70470146088D7047AA
:1029100021B1028842F00202028004E002884FF6F0
:10292000FD731A400280704721B1028842F0040210
:10293000028004E002884FF6FB731A400280704761
:1029400021B1028842F08002028004E002884FF642
:102950007F731A400280704702884FF6F7731A405F
:10296000028002880A430280704702884FF6FF43C4
:102970001A40028002880A430280704721B102880F
:1029800042F00102028004E002884FF6FE731A4012
:102990000280704770B5002400220023058C4FF69A
:1029A000FE7635400584028C8388048B4FF68F7544
:1029B0002C40B51E2C400D882C43751E2A408D8955
:1029C0002A434D882A43524DA84202D0564DA84270
:1029D00013D14FF6F7752A40CD892A434FF6FB7580
:1029E0002A408D882A434FF6FF652B404FF6FF554E
:1029F0002B400D8A2B434D8A2B43838004838D68A3
:102A00004563028470BD70B5002400220023058C4C
:102A10004FF6EF7635400584028C8388048B48F6A8
:102A2000FF752C404FF6FF452C400D884FF6FF7682
:102A300006EA05252C434FF6DF752A408D8906EA04
:102A400005152A434D8806EA05152A43304DA8424C
:102A500002D0354DA8421DD14FF67F752A40CD8951
:102A60004FF6FF7606EA05152A434FF6BF752A4052
:102A70008D8806EA05152A434FF6FF352B404FF2A5
:102A8000FF752B400D8A06EA85052B434D8A06EA21
:102A900085052B43838004838D688563028470BD24
:102AA00070B5002400220023058C4FF6FF663540E8
:102AB0000584028C8388848B4FF68F752C404FF6EB
:102AC000FC752C400D882C434FF6FF552A408D890C
:102AD0004FF6FF7606EA05252A434D8806EA0525C6
:102AE0002A430B4DA84202D00F4DA84238D14FF2D5
:102AF000FF752A40CD894FF6FF7606EA05252A4361
:102B00004FF6FF352A408D8806EA05252A4319E04D
:102B1000000001400004004000080040000C00409C
:102B2000001000400014004000040140004001403B
:102B3000004401400048014000180040001C0040D3
:102B4000002000404EF6FF752B404DF6FF752B40E0
:102B50000D8A06EA05152B434D8A06EA05152B4317
:102B6000838084838D68C563028470BD70B5002244
:102B700000230024058C4EF6FF7635400584038C37
:102B80008488828B48F6FF752A404FF6FF452A401D
:102B90000D884FF6FF7606EA05252A434DF6FF75A8
:102BA0002B408D8906EA05352B434D8806EA05350D
:102BB0002B43FE4DA84202D0FD4DA84208D14BF652
:102BC000FF752C400D8A4FF6FF7606EA85152C43DB
:102BD000848082838D680564038470BD0021018038
:102BE0004180818081608181C18101824182704701
:102BF00070B50346002000241846183001258D408A
:102C0000ACB21D8CA5431D8409B108290AD100EB83
:102C1000610005684FF68F763540056005681543FD
:102C200005600FE00D1FC5F34E052844056848F602
:102C3000FF763540056005684FF6FF7606EA022606
:102C40003543056070BD4163704781637047C16360
:102C50007047016470470A460021018B4FF68F735D
:102C600019401143018370470A460021018B48F641
:102C7000FF7319404FF6FF7303EA022319430183E0
:102C800070470A460021818B4FF68F73194011431C
:102C9000818370470A460021818B48F6FF731940F3
:102CA0004FF6FF7303EA02231943818370470A46F4
:102CB0000021018B4FF6F7731940114301837047D0
:102CC0000A460021018B4FF2FF7319404FF6FF7344
:102CD00003EA02231943018370470A460021818BCE
:102CE0004FF6F77319401143818370470A4600215C
:102CF000818B4FF2FF7319404FF6FF7303EA0223F3
:102D00001943818370470A460021018B4FF6FB73FC
:102D100019401143018370470A460021018B4FF689
:102D2000FF3319404FF6FF7303EA0223194301836F
:102D300070470A460021818B4FF6FB7319401143FF
:102D4000818370470A460021818B4FF6FF3319407B
:102D50004FF6FF7303EA02231943818370470A4643
:102D60000021018B4FF67F73194011430183704797
:102D70000A460021018BC1F30E014FF6FF7303EAEF
:102D800002231943018370470A460021818B4FF6C5
:102D90007F7319401143818370470A460021818B5C
:102DA000C1F30E014FF6FF7303EA02231943818337
:102DB00070470A460021018C4FF6FD7319401143FC
:102DC000018470470A460021018C4FF6F7731940C1
:102DD0001143018470470A460021018C4FF6DF73CE
:102DE00019404FF6FF7303EA021319430184704739
:102DF0000A460021018C4FF67F7319404FF6FF738E
:102E000003EA02131943018470470A460021018C2A
:102E10004FF6FF5319404FF6FF7303EA022319439D
:102E2000018470470A460021018C4FF2FF7319405C
:102E30004FF6FF7303EA02231943018470470A46E1
:102E40000021018C4DF6FF7319404FF6FF7303EA22
:102E5000023319430184704730B5002301248C40AC
:102E6000A3B2048C9C430484048C02FA01F5ADB235
:102E70002C43048430BD30B5002304248C40A3B21D
:102E8000048C9C430484048C02FA01F5ADB22C43FB
:102E9000048430BD828B4FF2FF331A408283828BD1
:102EA0004FF6FF7303EA01231A4382837047F0B59C
:102EB0000C461546002100220026078C4EF6FF7CAA
:102EC00007EA0C070784818B028C4FF6FF7707EA2D
:102ED000043640F6FF4739404FF6FF7707EA0527EB
:102EE00039434FF6FF7707EA0337394345F6FF7753
:102EF0003A4046F480573A4381830284F0BD828B86
:102F00004FF6F3731A408283828B0A4382837047A1
:102F1000F0B50C461546002100220026078C4FF61E
:102F2000FF6C07EA0C070784818B028C4FF6FF7752
:102F300007EA04264FF60C7739404FF6FF7707EA89
:102F400003172F4339434FF2FF573A4046F4807737
:102F50003A4381830284F0BD028B4FF2FF331A4063
:102F60000283028B4FF6FF7303EA01231A430283A5
:102F70007047F0B50C461546002100220026078C4C
:102F80004FF6EF7C07EA0C070784018B028C4FF6A3
:102F9000FF7707EA041640F6FF4739404FF6FF7700
:102FA00007EA033739434FF6FF7703E0000001409B
:102FB0000004014007EA052739434FF65F773A409E
:102FC00046F010073A4301830284F0BD028B4FF6AE
:102FD000F3731A400283028B0A4302837047F0B5F1
:102FE0000C46154600210022068C4FF6FE773E4027
:102FF0000684018B028C4FF60C7631407E1C06EA6B
:1030000003162E4331434FF6F576324044F0010665
:10301000324301830284F0BD70B505460C4620881A
:1030200050B92389A28861882846FFF7D8FFE18834
:103030002846FFF7CBFF25E0208804280AD1238902
:10304000A28861882846FFF794FFE1882846FFF7A9
:1030500083FF17E0208808280AD12389A288618885
:103060002846FFF755FFE1882846FFF748FF09E0AB
:103070002389A28861882846FFF719FFE18828463E
:10308000FFF708FF70BD0021018041800121818090
:103090000021C180018170472DE9F04105460C46B1
:1030A00000260127608808B9022600E00026A088D3
:1030B000012801D1022700E001272088A0B9238937
:1030C000A28861882846FFF78AFFE1882846FFF733
:1030D0007DFF23893A4631462846FFF74AFFE188BB
:1030E0002846FFF739FF13E02389A2886188284624
:1030F000FFF73FFFE1882846FFF72EFF23893A4676
:1031000031462846FFF76BFFE1882846FFF75EFF50
:10311000BDE8F0810146486B70470146886B7047F7
:103120000146C86B70470146086C70470A884B8897
:103130001A438B881A43CB881A430B891A434B894D
:103140001A438B891A43A0F844207047002101805C
:1031500041808180C180018141818181704731B18D
:10316000B0F8442042F40042A0F8442005E0B0F852
:103170004420C2F30E02A0F84420704721B1828897
:1031800042F00402828004E082884FF6FB731A400A
:103190008280704721B1828842F00102828004E07F
:1031A00082884FF6FE731A40828070471AB1838975
:1031B0000B43838102E083898B4383817047818243
:1031C000704702460020138A0B400BB1012000E03B
:1031D00000207047CA430282704730B50246002083
:1031E00000230024158A05EA0103958905EA0104F4
:1031F00013B10CB1012000E0002030BDCA430282AF
:10320000704741EA0203A0F8483070471AB1838939
:103210000B43838102E083898B438381704721B113
:10322000828842F00802828004E082884FF6F773B9
:103230001A408280704701894FF6F872114001816F
:1032400070470A46002101894FF68F7319401143D8
:103250000181704730B504460D4629462046FFF7E8
:10326000F0FF208940F00700208130BD2DE9F041BA
:1032700004460D4616461F46602D06D13B460122E8
:1032800031462046FFF775FE05E03B4601223146F8
:103290002046FFF7A4FE29462046FFF7D2FF2089EB
:1032A00040F007002081BDE8F08130B50C460021D8
:1032B0000189C9B24FF6FF7505EA03251543254379
:1032C0002943018130BD2DE9F04105460E461746E0
:1032D0009846002443463A4631462846FFF7E5FF24
:1032E0002C894FF6F870044044F007044FF68F70B5
:1032F000044044F070042C81BDE8F081F0B5044630
:103300000D4616461F463B46324629462046FFF7E5
:10331000CCFF208940F480402081F0BD82884FF6A8
:103320008F731A40828082880A43828070470289A4
:103330004FF6F8731A40028102890A4302817047EE
:1033400002894FF67F731A40028102890A43028183
:103350007047F0B50C4615461E460021002200239A
:103360000189028B038C4FF6F877394021434FF6E1
:10337000FC473A4040F201173A434FF6DD773B40B5
:103380004FF6FF7707EA06172F433B43018102837D
:103390000384F0BD21B1828842F08002828004E083
:1033A00082884FF67F731A4082807047A0F85010D1
:1033B00070472DE9FE4F804681EA0300C00F0C469E
:1033C000009021F0004123F00045B8EB0200A94134
:1033D00005D24046214690461C460B46024623F045
:1033E0000040104347D0270DC7F30A00C3F30A512A
:1033F0000290401A019040286BDAC3F3130040F4A6
:10340000801B0098924620B10023D2EB030A63EBA5
:103410000B0B01985946C0F14002504600F012F9DA
:1034200006460D4650465946019A00F02AF910EB1F
:1034300008006141002487EA115284EAE7731A43C5
:1034400040D0009A62B3019A012A4FEA075215DC74
:10345000001B61EB02014FF0004202EA0752CDE986
:103460000042001C41F5801132462B4600F02AF93B
:1034700003B0BDE8F08F40462146F9E7001B61EB41
:103480000201001C41F5801300185B412018A2F5D1
:10349000001747EB030140EAD570B6196D4111E002
:1034A0006D084FEA360645EAC0754FEA0752001B21
:1034B00061EB0201001C41F5801149084FEA300020
:1034C0000019514132462B4603B0BDE8F04F00F0E1
:1034D000EAB80098012240000023D0EB020263EB1F
:1034E000E073009821464FEAE074B8EB000061EB0E
:1034F0000401E9E783F000435BE781F0004158E70E
:103500002DE9FE4F81EA030404F0004421F000415C
:1035100000944FF0000B23F0004350EA01045ED00A
:1035200052EA03045BD0C3F30A54C1F30A552C4496
:10353000A4F2F3340194A0FB0254C1F3130141F44B
:103540008011C3F3130343F4801301FB024400FB17
:10355000034E840A970A44EA815447EA8357A4FB3E
:10356000076802958D0A05FB07854FEA932C04FB3B
:103570000C542705029D4FEA065847EA1637B5EB6B
:1035800008056EEB070C870E920E47EA811742EA98
:103590008312A7FB0201B6EB0B0164EB00042B0DB9
:1035A00043EA0C335E1844EB1C50DA465146E7FB05
:1035B0000201C5F313044FEA0B3343EA14534FEAF5
:1035C0000432019C43EA0603A4F10C040294009C1B
:1035D000CDE900B400F076F803B0BDE8F08F00202C
:1035E0000146F9E70EB5C10F80EAE0700844CA074A
:1035F000002140F233438DE80E000A460B4600F0EE
:1036000061F803B000BD70B5C1F30A5201F0004586
:103610000024C1F3130140F2FF3341F480119A42B8
:1036200001DA002070BD40F233439A42A2F23342E5
:1036300003DC524200F015F800E090402C43F1D03A
:10364000404270BD202A04DB203A00FA02F100203B
:1036500070479140C2F1200320FA03F319439040D0
:103660007047202A04DB203A21FA02F0002170473B
:1036700021FA02F3D040C2F12002914008431946DA
:103680007047202A06DBCB17203A41FA02F043EAC2
:10369000E07306E041FA02F3D040C2F1200291400B
:1036A00008431946704710B5141E73F1000408DA78
:1036B000401C41F1000192185B411A4301D120F0F6
:1036C000010010BD2DE9F04D92469B4611B1B1FAB3
:1036D00081F202E0B0FA80F220329046FFF7B2FFAA
:1036E00004460F4640EA0A0041EA0B0153465A4697
:1036F000084313D0114653EA010019D0C8F1400223
:103700005046FFF7AEFF05460E4650465946424624
:10371000FFF798FF084305D0012004E02046394612
:10372000BDE8F08D0020054346EAE0762C433743A0
:103730000A986305E40AA0EB08000022FD0A44EAA7
:1037400047540A3002D500200146E9E70105101967
:103750006941DDE9084500196941BDE8F04DA2E77E
:10376000064C074D06E0E06840F0010394E80700CE
:1037700098471034AC42F6D3FCF70AFD183B00081A
:10378000383B000810B5044601212046FDF719FA20
:1037900010BD10B5044601212046FDF781F910BD8A
:1037A00010B5044601212046FDF732FB10BD10B5CF
:1037B000044601212046FDF793FA10BD2DED020BC2
:1037C000019820F0004001909DED000B02B0704781
:1037D00002E008C8121F08C1002AFAD170477047DA
:1037E000002001E001C1121F002AFBD17047C80070
:1037F000C800C800C80027002700270027002700AE
:103800002700270027002700270027002700260081
:103810002600260026002600260026002600260078
:103820002600260026002600260026002600260068
:10383000260026002500250025002500250025005E
:103840002500250025002500250025002400240052
:10385000240024002400240024002400230023004A
:103860002300230023002300230023002200220042
:10387000220022002200220021002100210021003C
:1038800021002100200020002000200020001F0037
:103890001F001F001F001F001F001E001E001E0033
:1038A0001E001E001D001D001D001D001D001C002F
:1038B0001C001C001C001C001C001B001B001B002B
:1038C0001B001B001B001A001A001A001A001A0025
:1038D0001A0019001900190019001900190019001F
:1038E0001800180018001800180018001800180018
:1038F000180017001700170017001700170017000F
:103900001700170017001700170016001600160002
:1039100016001600160016001600160016001600F7
:1039200016001600160016001600160016001600E7
:1039300015001500150015001500150015001500DF
:1039400015001500150015001500150015001500CF
:1039500015001500150015001500150015001500BF
:1039600015001500150015001500150015001500AF
:10397000150015001500150015001500150015009F
:103980001500150015002700270027002700270035
:1039900027002700270027002700270027002600F0
:1039A00026002600260026002600260026002600E7
:1039B00026002600260026002600260026002600D7
:1039C00026002600250025002500250025002500CD
:1039D00025002500250025002500250024002400C1
:1039E00024002400240024002400240023002300B9
:1039F00023002300230023002300230022002200B1
:103A000022002200220022002100210021002100AA
:103A100021002100200020002000200020001F00A5
:103A20001F001F001F001F001F001E001E001E00A1
:103A30001E001E001D001D001D001D001D001C009D
:103A40001C001C001C001C001C001B001B001B0099
:103A50001B001B001B001A001A001A001A001A0093
:103A60001A0019001900190019001900190019008D
:103A70001800180018001800180018001800180086
:103A8000180017001700170017001700170017007D
:103A90001700170017001700170016001600160071
:103AA0001600160016001600160016001600160066
:103AB0001600160016001600160016001600160056
:103AC000150015001500150015001500150015004E
:103AD000150015001500150015001500150015003E
:103AE000150015001500150015001500150015002E
:103AF000150015001500150015001500150015001E
:103B0000150015001500150015001500150015000D
:103B10001500150015000000383B000800000020CB
:103B20003C000000D0370008743B00083C00002037
:103B300004080000E0370008007A030A00000000D3
:103B40000000000001020304060708090000050048
:103B50000000000000000000000000000000000065
:103B60000000000000000000010203040102030441
:043B70000607080933
:040000050800018965
:00000001FF
